{
  "_format": "hh-sol-artifact-1",
  "contractName": "scm",
  "sourceName": "contracts/scm.sol",
  "abi": [
    {
      "inputs": [
        {
          "internalType": "string",
          "name": "_serialNumber",
          "type": "string"
        },
        {
          "internalType": "string",
          "name": "_actor",
          "type": "string"
        },
        {
          "internalType": "string",
          "name": "_location",
          "type": "string"
        },
        {
          "internalType": "string",
          "name": "_timestamp",
          "type": "string"
        },
        {
          "internalType": "bool",
          "name": "_isSold",
          "type": "bool"
        }
      ],
      "name": "addProductHistory",
      "outputs": [],
      "stateMutability": "nonpayable",
      "type": "function"
    },
    {
      "inputs": [
        {
          "internalType": "string",
          "name": "_serialNumber",
          "type": "string"
        }
      ],
      "name": "getProduct",
      "outputs": [
        {
          "internalType": "string",
          "name": "",
          "type": "string"
        },
        {
          "internalType": "string",
          "name": "",
          "type": "string"
        },
        {
          "internalType": "string",
          "name": "",
          "type": "string"
        },
        {
          "internalType": "string",
          "name": "",
          "type": "string"
        },
        {
          "internalType": "string",
          "name": "",
          "type": "string"
        },
        {
          "components": [
            {
              "internalType": "uint256",
              "name": "id",
              "type": "uint256"
            },
            {
              "internalType": "string",
              "name": "actor",
              "type": "string"
            },
            {
              "internalType": "string",
              "name": "location",
              "type": "string"
            },
            {
              "internalType": "string",
              "name": "timestamp",
              "type": "string"
            },
            {
              "internalType": "bool",
              "name": "isSold",
              "type": "bool"
            }
          ],
          "internalType": "struct scm.ProductHistory[]",
          "name": "",
          "type": "tuple[]"
        }
      ],
      "stateMutability": "view",
      "type": "function"
    },
    {
      "inputs": [],
      "name": "owner",
      "outputs": [
        {
          "internalType": "address",
          "name": "",
          "type": "address"
        }
      ],
      "stateMutability": "view",
      "type": "function"
    },
    {
      "inputs": [
        {
          "internalType": "string",
          "name": "_name",
          "type": "string"
        },
        {
          "internalType": "string",
          "name": "_brand",
          "type": "string"
        },
        {
          "internalType": "string",
          "name": "_serialNumber",
          "type": "string"
        },
        {
          "internalType": "string",
          "name": "_description",
          "type": "string"
        },
        {
          "internalType": "string",
          "name": "_image",
          "type": "string"
        },
        {
          "internalType": "string",
          "name": "_actor",
          "type": "string"
        },
        {
          "internalType": "string",
          "name": "_location",
          "type": "string"
        },
        {
          "internalType": "string",
          "name": "_timestamp",
          "type": "string"
        }
      ],
      "name": "registerProduct",
      "outputs": [],
      "stateMutability": "nonpayable",
      "type": "function"
    }
  ],
  "bytecode": "0x608060405234801561001057600080fd5b506118a8806100206000396000f3fe608060405234801561001057600080fd5b506004361061004c5760003560e01c80633e2357e31461005157806368111cce1461006d5780638da5cb5b146100a2578063b4b33ef5146100c0575b600080fd5b61006b60048036038101906100669190610f63565b6100dc565b005b610087600480360381019061008291906110f9565b61020e565b6040516100999695949392919061138e565b60405180910390f35b6100aa61088a565b6040516100b7919061145a565b60405180910390f35b6100da60048036038101906100d591906114a1565b6108ae565b005b60006001876040516100ee91906115c8565b9081526020016040518091039020600101805461010a9061160e565b90501461014c576040517f08c379a0000000000000000000000000000000000000000000000000000000008152600401610143906116b1565b60405180910390fd5b600060018760405161015e91906115c8565b9081526020016040518091039020905088816000019080519060200190610186929190610d2b565b508781600301908051906020019061019f929190610d2b565b50868160010190805190602001906101b8929190610d2b565b50858160020190805190602001906101d1929190610d2b565b50848160040190805190602001906101ea929190610d2b565b50600081600601819055506102038785858560006108ae565b505050505050505050565b606080606080606080600060018860405161022991906115c8565b90815260200160405180910390206006015467ffffffffffffffff81111561025457610253610e38565b5b60405190808252806020026020018201604052801561028d57816020015b61027a610db1565b8152602001906001900390816102725790505b50905060005b6001896040516102a391906115c8565b908152602001604051809103902060060154811015610511576001896040516102cc91906115c8565b908152602001604051809103902060050160006001836102ec9190611700565b81526020019081526020016000206040518060a00160405290816000820154815260200160018201805461031f9061160e565b80601f016020809104026020016040519081016040528092919081815260200182805461034b9061160e565b80156103985780601f1061036d57610100808354040283529160200191610398565b820191906000526020600020905b81548152906001019060200180831161037b57829003601f168201915b505050505081526020016002820180546103b19061160e565b80601f01602080910402602001604051908101604052809291908181526020018280546103dd9061160e565b801561042a5780601f106103ff5761010080835404028352916020019161042a565b820191906000526020600020905b81548152906001019060200180831161040d57829003601f168201915b505050505081526020016003820180546104439061160e565b80601f016020809104026020016040519081016040528092919081815260200182805461046f9061160e565b80156104bc5780601f10610491576101008083540402835291602001916104bc565b820191906000526020600020905b81548152906001019060200180831161049f57829003601f168201915b505050505081526020016004820160009054906101000a900460ff1615151515815250508282815181106104f3576104f2611756565b5b6020026020010181905250808061050990611785565b915050610293565b5060018860405161052291906115c8565b908152602001604051809103902060010160018960405161054391906115c8565b908152602001604051809103902060000160018a60405161056491906115c8565b908152602001604051809103902060030160018b60405161058591906115c8565b908152602001604051809103902060020160018c6040516105a691906115c8565b9081526020016040518091039020600401858580546105c49061160e565b80601f01602080910402602001604051908101604052809291908181526020018280546105f09061160e565b801561063d5780601f106106125761010080835404028352916020019161063d565b820191906000526020600020905b81548152906001019060200180831161062057829003601f168201915b505050505095508480546106509061160e565b80601f016020809104026020016040519081016040528092919081815260200182805461067c9061160e565b80156106c95780601f1061069e576101008083540402835291602001916106c9565b820191906000526020600020905b8154815290600101906020018083116106ac57829003601f168201915b505050505094508380546106dc9061160e565b80601f01602080910402602001604051908101604052809291908181526020018280546107089061160e565b80156107555780601f1061072a57610100808354040283529160200191610755565b820191906000526020600020905b81548152906001019060200180831161073857829003601f168201915b505050505093508280546107689061160e565b80601f01602080910402602001604051908101604052809291908181526020018280546107949061160e565b80156107e15780601f106107b6576101008083540402835291602001916107e1565b820191906000526020600020905b8154815290600101906020018083116107c457829003601f168201915b505050505092508180546107f49061160e565b80601f01602080910402602001604051908101604052809291908181526020018280546108209061160e565b801561086d5780601f106108425761010080835404028352916020019161086d565b820191906000526020600020905b81548152906001019060200180831161085057829003601f168201915b505050505091509650965096509650965096505091939550919395565b60008054906101000a900473ffffffffffffffffffffffffffffffffffffffff1681565b60006001866040516108c091906115c8565b908152602001604051809103902090508060060160008154809291906108e590611785565b91905055506040518060a001604052808260060154815260200186815260200185815260200184815260200183151581525081600501600083600601548152602001908152602001600020600082015181600001556020820151816001019080519060200190610956929190610d2b565b506040820151816002019080519060200190610973929190610d2b565b506060820151816003019080519060200190610990929190610d2b565b5060808201518160040160006101000a81548160ff0219169083151502179055509050506109f76040518060400160405280600681526020017f69313a20257300000000000000000000000000000000000000000000000000008152508260060154610bad565b610ada6040518060400160405280601981526020017f50726f6475637420486973746f72792061646465643a20257300000000000000815250826005016000846006015481526020019081526020016000206001018054610a579061160e565b80601f0160208091040260200160405190810160405280929190818152602001828054610a839061160e565b8015610ad05780601f10610aa557610100808354040283529160200191610ad0565b820191906000526020600020905b815481529060010190602001808311610ab357829003601f168201915b5050505050610c49565b610ba56040518060400160405280600c81526020017f50726f64756374203a2025730000000000000000000000000000000000000000815250826000018054610b229061160e565b80601f0160208091040260200160405190810160405280929190818152602001828054610b4e9061160e565b8015610b9b5780601f10610b7057610100808354040283529160200191610b9b565b820191906000526020600020905b815481529060010190602001808311610b7e57829003601f168201915b5050505050610c49565b505050505050565b610c458282604051602401610bc39291906117dc565b6040516020818303038152906040527fb60e72cc000000000000000000000000000000000000000000000000000000007bffffffffffffffffffffffffffffffffffffffffffffffffffffffff19166020820180517bffffffffffffffffffffffffffffffffffffffffffffffffffffffff8381831617835250505050610ce5565b5050565b610ce18282604051602401610c5f92919061180c565b6040516020818303038152906040527f4b5c4277000000000000000000000000000000000000000000000000000000007bffffffffffffffffffffffffffffffffffffffffffffffffffffffff19166020820180517bffffffffffffffffffffffffffffffffffffffffffffffffffffffff8381831617835250505050610ce5565b5050565b610cfc81610cf4610cff610d20565b63ffffffff16565b50565b60006a636f6e736f6c652e6c6f679050600080835160208501845afa505050565b610de2819050919050565b828054610d379061160e565b90600052602060002090601f016020900481019282610d595760008555610da0565b82601f10610d7257805160ff1916838001178555610da0565b82800160010185558215610da0579182015b82811115610d9f578251825591602001919060010190610d84565b5b509050610dad9190610dec565b5090565b6040518060a00160405280600081526020016060815260200160608152602001606081526020016000151581525090565b610dea611843565b565b5b80821115610e05576000816000905550600101610ded565b5090565b6000604051905090565b600080fd5b600080fd5b600080fd5b600080fd5b6000601f19601f8301169050919050565b7f4e487b7100000000000000000000000000000000000000000000000000000000600052604160045260246000fd5b610e7082610e27565b810181811067ffffffffffffffff82111715610e8f57610e8e610e38565b5b80604052505050565b6000610ea2610e09565b9050610eae8282610e67565b919050565b600067ffffffffffffffff821115610ece57610ecd610e38565b5b610ed782610e27565b9050602081019050919050565b82818337600083830152505050565b6000610f06610f0184610eb3565b610e98565b905082815260208101848484011115610f2257610f21610e22565b5b610f2d848285610ee4565b509392505050565b600082601f830112610f4a57610f49610e1d565b5b8135610f5a848260208601610ef3565b91505092915050565b600080600080600080600080610100898b031215610f8457610f83610e13565b5b600089013567ffffffffffffffff811115610fa257610fa1610e18565b5b610fae8b828c01610f35565b985050602089013567ffffffffffffffff811115610fcf57610fce610e18565b5b610fdb8b828c01610f35565b975050604089013567ffffffffffffffff811115610ffc57610ffb610e18565b5b6110088b828c01610f35565b965050606089013567ffffffffffffffff81111561102957611028610e18565b5b6110358b828c01610f35565b955050608089013567ffffffffffffffff81111561105657611055610e18565b5b6110628b828c01610f35565b94505060a089013567ffffffffffffffff81111561108357611082610e18565b5b61108f8b828c01610f35565b93505060c089013567ffffffffffffffff8111156110b0576110af610e18565b5b6110bc8b828c01610f35565b92505060e089013567ffffffffffffffff8111156110dd576110dc610e18565b5b6110e98b828c01610f35565b9150509295985092959890939650565b60006020828403121561110f5761110e610e13565b5b600082013567ffffffffffffffff81111561112d5761112c610e18565b5b61113984828501610f35565b91505092915050565b600081519050919050565b600082825260208201905092915050565b60005b8381101561117c578082015181840152602081019050611161565b8381111561118b576000848401525b50505050565b600061119c82611142565b6111a6818561114d565b93506111b681856020860161115e565b6111bf81610e27565b840191505092915050565b600081519050919050565b600082825260208201905092915050565b6000819050602082019050919050565b6000819050919050565b611209816111f6565b82525050565b600082825260208201905092915050565b600061122b82611142565b611235818561120f565b935061124581856020860161115e565b61124e81610e27565b840191505092915050565b60008115159050919050565b61126e81611259565b82525050565b600060a08301600083015161128c6000860182611200565b50602083015184820360208601526112a48282611220565b915050604083015184820360408601526112be8282611220565b915050606083015184820360608601526112d88282611220565b91505060808301516112ed6080860182611265565b508091505092915050565b60006113048383611274565b905092915050565b6000602082019050919050565b6000611324826111ca565b61132e81856111d5565b935083602082028501611340856111e6565b8060005b8581101561137c578484038952815161135d85826112f8565b94506113688361130c565b925060208a01995050600181019050611344565b50829750879550505050505092915050565b600060c08201905081810360008301526113a88189611191565b905081810360208301526113bc8188611191565b905081810360408301526113d08187611191565b905081810360608301526113e48186611191565b905081810360808301526113f88185611191565b905081810360a083015261140c8184611319565b9050979650505050505050565b600073ffffffffffffffffffffffffffffffffffffffff82169050919050565b600061144482611419565b9050919050565b61145481611439565b82525050565b600060208201905061146f600083018461144b565b92915050565b61147e81611259565b811461148957600080fd5b50565b60008135905061149b81611475565b92915050565b600080600080600060a086880312156114bd576114bc610e13565b5b600086013567ffffffffffffffff8111156114db576114da610e18565b5b6114e788828901610f35565b955050602086013567ffffffffffffffff81111561150857611507610e18565b5b61151488828901610f35565b945050604086013567ffffffffffffffff81111561153557611534610e18565b5b61154188828901610f35565b935050606086013567ffffffffffffffff81111561156257611561610e18565b5b61156e88828901610f35565b925050608061157f8882890161148c565b9150509295509295909350565b600081905092915050565b60006115a282611142565b6115ac818561158c565b93506115bc81856020860161115e565b80840191505092915050565b60006115d48284611597565b915081905092915050565b7f4e487b7100000000000000000000000000000000000000000000000000000000600052602260045260246000fd5b6000600282049050600182168061162657607f821691505b602082108103611639576116386115df565b5b50919050565b7f50726f64756374207769746820746869732073657269616c206e756d6265722060008201527f616c726561647920657869737473000000000000000000000000000000000000602082015250565b600061169b602e8361114d565b91506116a68261163f565b604082019050919050565b600060208201905081810360008301526116ca8161168e565b9050919050565b7f4e487b7100000000000000000000000000000000000000000000000000000000600052601160045260246000fd5b600061170b826111f6565b9150611716836111f6565b9250827fffffffffffffffffffffffffffffffffffffffffffffffffffffffffffffffff0382111561174b5761174a6116d1565b5b828201905092915050565b7f4e487b7100000000000000000000000000000000000000000000000000000000600052603260045260246000fd5b6000611790826111f6565b91507fffffffffffffffffffffffffffffffffffffffffffffffffffffffffffffffff82036117c2576117c16116d1565b5b600182019050919050565b6117d6816111f6565b82525050565b600060408201905081810360008301526117f68185611191565b905061180560208301846117cd565b9392505050565b600060408201905081810360008301526118268185611191565b9050818103602083015261183a8184611191565b90509392505050565b7f4e487b7100000000000000000000000000000000000000000000000000000000600052605160045260246000fdfea2646970667358221220b09e7a488d90772061693f9dc86510db9f781fa88134f48ceba3f1181ccaf66864736f6c634300080d0033",
  "linkReferences": {},
  "deployedLinkReferences": {}
}